:100000000C9446000C9465000C9465000C946500FB
:100010000C9465000C9465000C9465000C946500CC
:100020000C9465000C9465000C9465000C946500BC
:100030000C9465000C94DE000C9465000C94650033
:100040000C9465000C9465000C9465000C9465009C
:100050000C9465000C9465000C9465000C9465008C
:100060000C9465000C9465000C9465000C9465007C
:100070000C9465000C9465000C9465000C9465006C
:100080000C9465000C9465000C94650011241FBE4F
:10009000CFEFD0E4DEBFCDBF11E0A0E0B1E0EAE3F6
:1000A000F9E000E00BBF02C007900D92A236B10745
:1000B000D9F721E0A2E6B1E001C01D92A137B20755
:1000C000E1F70E94D2020C949B040C940000CF93A1
:1000D000DF9300D01F92CDB7DEB789837B836A831D
:1000E00089818A3031F48A819B81BC018DE00E9434
:1000F000670080EC90E0FC018081882F90E08072A6
:100100009927892BB1F386EC90E02981FC012083AB
:1001100080E090E00F900F900F90DF91CF910895C5
:10012000CF93DF93CDB7DEB781E890E02BE0FC0101
:10013000208388E890E02DE730E0FC0131832083C4
:100140008FE690E022E0FC01208384E890E0FC014F
:100150001182108280910E0190910F01A0911001E7
:10016000B09111018093630190936401A0936501A4
:10017000B09366018FE590E02FE530E0F901208132
:100180002068FC0120830000DF91CF910895CF9378
:10019000DF93CDB7DEB781E890E0FC01108200006C
:1001A000DF91CF910895CF93DF93CDB7DEB781E094
:1001B000809362010000DF91CF9108951F920F920A
:1001C00000905F000F92112400905B000F922F931C
:1001D0003F934F935F936F937F938F939F93AF93CF
:1001E000BF93EF93FF93CF93DF93CDB7DEB78091AB
:1001F000630190916401A0916501B091660101973E
:10020000A109B1098093630190936401A0936501F2
:10021000B09366018091630190916401A0916501A2
:10022000B0916601892B8A2B8B2B91F40E94D3000D
:1002300080910E0190910F01A0911001B0911101D8
:100240008093630190936401A0936501B09366016C
:100250000000DF91CF91FF91EF91BF91AF919F91FE
:100260008F917F916F915F914F913F912F910F905F
:1002700000925B000F9000925F000F901F90189506
:10028000CF93DF9300D000D0CDB7DEB769837A83F8
:100290008B839C8389819A81AB81BC8180930E0181
:1002A00090930F01A0931001B093110180910E0162
:1002B00090910F01A0911001B09111018093630101
:1002C00090936401A0936501B093660100000F90C4
:1002D0000F900F900F90DF91CF9108950F931F9380
:1002E000CF93DF9300D000D0CDB7DEB769837A8398
:1002F0008B839C8380916B0190916C01A0916D0127
:10030000B0916E019C01AD0169817A818B819C81E4
:100310000E940703882309F477C020E030E0A90198
:1003200069817A818B819C810E940703882351F423
:1003300081E990E021E930E0F90120812870FC0199
:10034000208309C081E990E021E930E0F9012081B2
:100350002360FC01208328E539E344E75FE36981FA
:100360007A818B819C810E940703882344F488E969
:1003700090E02FEF3FEFFC013183208334C020E079
:1003800034E244EF56E469817A818B819C810E943A
:100390002904181634F488E990E0FC0111821082D7
:1003A00022C008E910E020E030E040E053E4698139
:1003B0007A818B819C810E942E04DC01CB019C01FF
:1003C000AD0160E074E284EF9AE40E940C03DC016A
:1003D000CB01BC01CD010E947E03DC01CB01019762
:1003E000F8019183808384E990E0FC0111821082FE
:1003F00089819A81AB81BC8180936B0190936C0160
:10040000A0936D01B0936E0100000F900F900F90BC
:100410000F90DF91CF911F910F910895CF93DF93AC
:10042000CDB7DEB780E990E020E4FC01208381E9CC
:1004300090E029E0FC01208360E070E0CB010E94A5
:100440006E010000DF91CF910895CF93DF93CDB778
:10045000DEB780E990E0FC01108281E990E0FC01C8
:1004600010820000DF91CF910895CF93DF93CDB735
:10047000DEB780E290E0FC018081882F90E08170FF
:10048000992721E0892B09F020E0822F80936701D2
:1004900080916F019091700181309105A9F08130B8
:1004A000910518F0029731F149C088E290E010926E
:1004B000690120916901FC01208381E090E0909323
:1004C000700180936F013AC080916701813049F4D7
:1004D0000E940E0282E090E09093700180936F0181
:1004E0002DC00E94250281E090E0909370018093DE
:1004F0006F0124C080916A018130A1F410926A01D9
:10050000809169018F5F80936901809169018831D1
:10051000A1F41092690181E090E0909370018093C2
:100520006F010BC080916A018F5F80936A0182E046
:1005300090E09093700180936F01000080916F01B3
:10054000909170018130910531F18130910528F150
:10055000029709F023C080916901882F90E0880FED
:10056000991F880F991F8E5E9E4FFC01808191819B
:10057000A281B381BC01CD010E946E0188E290E0AE
:10058000309169012DEC329F212D1124269526955D
:10059000FC01208303C0000001C000000000DF91C7
:1005A000CF910895CF93DF93CDB7DEB781E290E08E
:1005B000FC01108282E290E02FEFFC01208384E2B4
:1005C00090E02FEFFC01208385E290E0FC01108297
:1005D00087E290E02FEFFC01208388E290E0FC01AD
:1005E00010821092700110926F0164E670E080E05A
:1005F00090E00E9440010E9490000E94350200009D
:10060000809162018823E1F310926201F6CF0E948B
:10061000B40308F481E008950E9420030C94EF03D2
:100620000E94E80358F00E94E10340F029F45F3F84
:1006300029F00C94D80351110C9423040C94DE037C
:100640000E94000468F39923B1F3552391F3951B9D
:10065000550BBB27AA2762177307840738F09F5FE3
:100660005F4F220F331F441FAA1FA9F335D00E2E50
:100670003AF0E0E832D091505040E695001CCAF7BD
:100680002BD0FE2F29D0660F771F881FBB1F261780
:1006900037074807AB07B0E809F0BB0B802DBF0157
:1006A000FF2793585F4F3AF09E3F510578F00C9426
:1006B000D8030C9423045F3FE4F3983ED4F386956B
:1006C00077956795B795F7959F5FC9F7880F911D47
:1006D0009695879597F90895E1E0660F771F881F33
:1006E000BB1F621773078407BA0720F0621B730BE6
:1006F000840BBA0BEE1F88F7E09508950E948503DE
:100700006894B1110C94230408950E94080488F0A1
:100710009F5798F0B92F9927B751B0F0E1F0660FC5
:10072000771F881F991F1AF0BA95C9F714C0B13006
:1007300091F00E942204B1E008950C942204672FE6
:10074000782F8827B85F39F0B93FCCF38695779535
:100750006795B395D9F73EF490958095709561951E
:100760007F4F8F4F9F4F0895990F0008550FAA0B89
:10077000E0E8FEEF16161706E807F907C0F01216B4
:100780001306E407F50798F0621B730B840B950BB7
:1007900039F40A2661F0232B242B252B21F408950C
:1007A0000A2609F4A140A6958FEF811D811D0895A9
:1007B00097F99F6780E870E060E008959FEF80EC14
:1007C000089500240A9416161706180609060895B7
:1007D00000240A9412161306140605060895092E1D
:1007E0000394000C11F4882352F0BB0F40F4BF2B8C
:1007F00011F460FF04C06F5F7F4F8F4F9F4F0895CC
:1008000057FD9058440F551F59F05F3F71F04795C1
:10081000880F97FB991F61F09F3F79F087950895A6
:10082000121613061406551FF2CF4695F1DF08C0C5
:10083000161617061806991FF1CF869571056105E2
:1008400008940895E894BB2766277727CB0197F98A
:1008500008950E94B40308F48FEF08950E944104A4
:100860000C94EF030E94E10338F00E94E80320F0AB
:10087000952311F00C94D8030C94DE0311240C94EE
:1008800023040E94000470F3959FC1F3950F50E07C
:10089000551F629FF001729FBB27F00DB11D639F32
:1008A000AA27F00DB11DAA1F649F6627B00DA11DD8
:1008B000661F829F2227B00DA11D621F739FB00D7E
:1008C000A11D621F839FA00D611D221F749F3327EE
:1008D000A00D611D231F849F600D211D822F762F87
:1008E0006A2F11249F5750409AF0F1F088234AF064
:1008F000EE0FFF1FBB1F661F771F881F91505040D0
:10090000A9F79E3F510580F00C94D8030C94230462
:100910005F3FE4F3983ED4F3869577956795B79556
:10092000F795E7959F5FC1F7FE2B880F911D969570
:0A093000879597F90895F894FFCF1A
:10093A000000000200000000670000000000010043
:10094A000000A4D082437BD49243A4D0A4430000E5
:10095A00C4430000C4430000DC430000C443A4D0E5
:10096A00A443A4D082437BD49243A4D0A443A4D06A
:10097A00A4437BD49243A4D082437BD49243A4D091
:10098A00A443A4D0A4437BD49243A4D082437BD46F
:02099A00924386
:00000001FF
